:020000040000FA
:04000000F1EF36F0F6
:106D9800BD86BD841200CCEC36F0CA80CA82CA8493
:106DA8001200D3508F0B6009D36EFC0ED31612005D
:106DB800E5EF36F00906D8A00A06C60E00D0E82E80
:106DC800FDD709500A10D8A4ECEF36F0EEEF36F0F4
:106DD800DEEF36F0F0EF36F01200880EF66E6F0E2A
:106DE800F76E000EF86E02EE00F010EE94F0090057
:106DF800F5CFEEFFE550E150FAE12E0EF66E6E0E7D
:106E0800F76E000EF86E00EE60F010EE4CF0090020
:106E1800F5CFEEFFE550E150FAE10001B96BB86B30
:106E28000001F0EF38F0323232230F32230F4132B3
:106E3800323232230F32230F4132321E0F322112E7
:106E48000D0D1921193221120D0D19231932230D97
:106E580032260D4132321E0F3221120D0D19211921
:106E68003221120D0D19231932260D32260D4141FA
:106E7800D007000E016E090E026E3D0E036E000E65
:106E8800046EB6C011F0B7C012F0113A123AF00E03
:106E9800121611500F0B1212F00E111611C005F038
:106EA80012C006F0000E06BEFF0E076E086E88ECD4
:106EB80039F001C00FF002C010F063EF37F0120094
:106EC8000001B7BF70EF37F0B75108E1B605D8A099
:106ED80070EF37F072EF37F090EF37F0B6C00FF081
:106EE800B7C010F0000E10BEFF0E116E126E91ECBE
:106EF80037F0010E5E6E5D680EEC38F0B8C009F030
:106F0800B9C00AF0DCEC36F0000E5E6E000E5D6E65
:106F18000EEC38F090EF37F01200000E016E090EFB
:106F2800026E3D0E036E000E046E0FC013F010C00B
:106F380014F011C015F012C016F0020ED8901336D6
:106F4800143615361636E82EA2EF37F0040ED89010
:106F58001336143615361636E82EABEF37F013C055
:106F680005F014C006F015C007F016C008F088EC4C
:106F780039F00104CB6E0FC0B6F010C0B7F01200A4
:106F8800B801B801B8015D010B02B8015D010B023F
:106F9800B8010000930293029302BA020B029F0108
:106FA8005D010B02B80100007003B801B80170035D
:106FB8003E031003E402BA02E4020000C7016E02B5
:106FC8004B022A020B02D2010B0200005D019F0155
:106FD8005D01B8010B02B8010B02930200007003B7
:106FE800B801B80170033E031003E402BA02E402D8
:106FF8000000C7016E024B022A020B02D2010B02EB
:1070080000005D019F015D010B02B8015D010B02EB
:10701800B8010000040E5E5CD8B015EF38F017EF29
:1070280038F079EF38F03DEC37F00FC013F010C0AE
:1070380014F0000E14BEFF0E156E166E010ECBEC8A
:107048003AF013C03EF014C03FF015C040F016C02F
:1070580041F0000E256EC00E266E7F0E276E440E80
:10706800286E5DC013F05EC014F0156A166A000E33
:10707800CBEC3AF013C021F014C022F015C023F075
:1070880016C024F0B9EC3BF021C03AF022C03BF026
:1070980023C03CF024C03DF0C9EC3DF03AC053F0A9
:1070A8003BC054F03CC055F03DC056F022EC3AF0DD
:1070B80053C05DF054C05EF0BD9A5DB066EF38F025
:1070C80069EF38F0BD886AEF38F0BD985DC0ACF064
:1070D8005EC0ADF00001D890AD33AC33D890AD337D
:1070E800AC33AC51BE6E79EF38F01200000E066E6C
:1070F80004BE83EF38F081EF38F08BEF38F0036C83
:10710800041ED8B0042A010E066E8BEF38F002BEBA
:1071180092EF38F090EF38F09AEF38F0016C021ED9
:10712800D8B0022A010E061A9AEF38F0000E086E3F
:10713800000E076E03500410D8B4A5EF38F0A7EF7F
:1071480038F0DBEF38F0010E056EB1EF38F0D8906B
:1071580003360436052AB1EF38F004AEB6EF38F03E
:10716800B8EF38F0ABEF38F0BCEF38F0BCEF38F0E0
:10717800D890073608360350015C04500258D8A04E
:10718800C8EF38F0CAEF38F0D1EF38F00350015E9D
:107198000450025A0780D1EF38F0D89004320332F5
:1071A800052EBCEF38F0DBEF38F0DBEF38F0065097
:1071B800D8B4E1EF38F0E3EF38F0E9EF38F0076CD6
:1071C800081ED8B0082AE9EF38F007C001F008C057
:1071D80002F0EFEF38F0120022EE00F011EE00F0AE
:1071E800930EDECFE6FFE806FCE2940ED95EE15E80
:1071F80020EE60F011EE94F0490EDBCFE3FFE806D5
:10720800FCE24A0E0101DE6FD5EC36F09494000ED4
:10721800826E9390F40E0F6E010E106E000E116EBA
:10722800000E126E91EC37F0000E5E6E000E5D6E71
:107238000EEC38F0CFEC36F022EF39F08A801A0ED7
:107248000001B46F5E0EB36F6E0EE82EFED7B32F3B
:10725800FCD7B42FFAD700F0000E0101E06F000E42
:10726800DF6F6BEF39F0D8900101DF35D96EE0356B
:10727800DA6E000ED926010EDA22DECFB6F0DDCFA7
:10728800B7F0940EDF25D96E010EE021DA6EDF50DB
:107298000001B36FB3510A0DF3CFB8F0F4CFB9F0D2
:1072A80064EC37F0AAC001F0ABC002F0000E046E27
:1072B800C80E036E7AEC38F001C009F002C00AF07B
:1072C800DCEC36F00101DF4BE02B6BEF39F0DE51DF
:1072D8000001B36FB46BB3510101DF5DE051800A67
:1072E8000001B56FB451800AB559D8A07EEF39F0C6
:1072F80080EF39F037EF39F08A90030022EF39F048
:1073080022EF39F000EF00F0000E0A6E08BE91EF90
:1073180039F08FEF39F09DEF39F0081E071E061E71
:10732800056C000E062207220822010E0A6E9DEF48
:1073380039F004BEA4EF39F0A2EF39F0B0EF39F01C
:10734800041E031E021E016C000E022203220422E8
:10735800010E0A1AB0EF39F0000E0B6E000E0C6E1B
:10736800000E0D6E000E0E6E055006100710081068
:10737800D8B4C1EF39F0C3EF39F005EF3AF0010E98
:10738800096ECFEF39F0D89005360636073608363D
:10739800092ACFEF39F008AED4EF39F0D6EF39F03B
:1073A800C7EF39F0DAEF39F0DAEF39F0D8900B3669
:1073B8000C360D360E360550015C06500258075043
:1073C800035808500458D8A0ECEF39F0EEEF39F024
:1073D800F9EF39F00550015E0650025A0750035A7A
:1073E8000850045A0B80F9EF39F0D8900832073268
:1073F80006320532092EDAEF39F005EF3AF005EFDB
:107408003AF00A50D8B40BEF3AF00DEF3AF017EF14
:107418003AF00E1E0D1E0C1E0B6C000E0C220D22D7
:107428000E2217EF3AF00BC001F00CC002F00DC0AD
:1074380003F00EC004F021EF3AF012005534563430
:107448005C6E5C50D8A42BEF3AF02DEF3AF039EF90
:107458003AF0000E536E000E546E000E556E000E7C
:10746800566ECAEF3AF0CAEF3AF053C057F054C01C
:1074780058F055C059F056C05AF0200E49EF3AF06E
:10748800D8905A32593258325732E82E44EF3AF0EF
:1074980057505B6E558EFF0E5316FF0E5416FF0E97
:1074A8005516000E5616960E5C5E5CBE60EF3AF0FE
:1074B8005EEF3AF084EF3AF05C50800A970FD8B04C
:1074C80068EF3AF06AEF3AF078EF3AF0000E536E50
:1074D800000E546E000E556E000E566ECAEF3AF04E
:1074E800CAEF3AF078EF3AF0D89056325532543223
:1074F80053325C3E78EF3AF0AEEF3AF0AEEF3AF046
:107508001F0E5C648AEF3AF08CEF3AF0A2EF3AF083
:10751800000E536E000E546E000E556E000E566E21
:10752800CAEF3AF0CAEF3AF0A2EF3AF0D8905336E1
:107538005436553656365C06A2EF3AF05C50D8A45D
:10754800A8EF3AF0AAEF3AF09AEF3AF0AEEF3AF035
:10755800AEEF3AF05B50D8B4B4EF3AF0B6EF3AF089
:10756800C0EF3AF0561E551E541E536C000E54229E
:1075780055225622C0EF3AF053C053F054C054F08D
:1075880055C055F056C056F0CAEF3AF012001B6EBF
:107598001B50D8B4D2EF3AF0D4EF3AF0F6EF3AF005
:1075A80016BEDBEF3AF0D9EF3AF0F6EF3AF013C037
:1075B80017F014C018F015C019F016C01AF0171EED
:1075C800181E191E1A1E172A000E182219221A220E
:1075D80017C01DF018C01EF019C01FF01AC020F007
:1075E80000EF3BF013C01DF014C01EF015C01FF0D3
:1075F80016C020F000EF3BF01350141015101610B1
:10760800D8A409EF3BF00BEF3BF017EF3BF0000E6F
:10761800136E000E146E000E156E000E166EB8EF87
:107628003BF0B8EF3BF0960E1C6E23EF3BF01C2AA4
:10763800D89020321F321E321D3223EF3BF0000E4D
:107648001D14176E000E1E14186E000E1F14196EEE
:10765800FE0E20141A6E1750181019101A10D8A4FC
:1076680038EF3BF03AEF3BF01BEF3BF04AEF3BF0D3
:107678004AEF3BF01C2A010E1D26000E1E221F2277
:107688002022D89020321F321E321D32000E1D14C7
:10769800176E000E1E14186E000E1F14196EFF0EC2
:1076A80020141A6E1750181019101A10D8A45FEF6A
:1076B8003BF061EF3BF03EEF3BF06DEF3BF06DEFE1
:1076C8003BF01C06D8901D361E361F3620366DEF4F
:1076D8003BF01FBE72EF3BF074EF3BF07EEF3BF0E8
:1076E800020E1C607AEF3BF07CEF3BF065EF3BF05D
:1076F8007EEF3BF01CB083EF3BF085EF3BF088EF6B
:107708003BF01F9E88EF3BF0D8901C321CC017F04E
:10771800186A196A1A6A17C01AF0196A186A176A71
:1077280017501D1218501E1219501F121A502012ED
:107738001B50D8B4A2EF3BF0A4EF3BF0AEEF3BF008
:1077480016BEABEF3BF0A9EF3BF0AEEF3BF0208E5F
:10775800AEEF3BF01DC013F01EC014F01FC015F0B3
:1077680020C016F0B8EF3BF012002450800B316EA9
:1077780024502424386E23AEC4EF3BF0C6EF3BF010
:10778800C9EF3BF03880C9EF3BF03850D8B4CFEFA1
:107798003BF0D1EF3BF0E8EF3BF03828D8A4D7EF27
:1077A8003BF0D9EF3BF0E3EF3BF0000E216E000E0B
:1077B800226E000E236E000E246EE3EF3BF0238E44
:1077C800000E246EF2EF3BF0000E216E000E226ECA
:1077D800000E236E000E246EF2EF3BF02850800B53
:1077E800311A28502824396E27AEFDEF3BF0FFEF01
:1077F8003BF002EF3CF0398002EF3CF03950D8B44E
:1078080008EF3CF00AEF3CF021EF3CF03928D8A40F
:1078180010EF3CF012EF3CF01CEF3CF0000E256E30
:10782800000E266E000E276E000E286E1CEF3CF030
:10783800278E000E286E2BEF3CF0000E256E000EF2
:10784800266E000E276E000E286E2BEF3CF025509A
:10785800261027102810D8A434EF3CF036EF3CF05F
:1078680050EF3CF0000E216E000E226E000E236ECB
:10787800000E246E800E23127F0E24123150241223
:1078880021C021F022C022F023C023F024C024F01C
:10789800C8EF3DF0C8EF3DF03850D8A456EF3CF0A3
:1078A80058EF3CF06CEF3CF0000E216E000E226E9B
:1078B800000E236E000E246E21C021F022C022F09B
:1078C80023C023F024C024F0C8EF3DF0C8EF3DF0FA
:1078D8003950296E2A6A291E2A1E294A2A2A38500E
:1078E8002B6E2C6A29502B262A502C227F0E2B24F3
:1078F800326E000E2C20336E21C02DF022C02EF0E7
:1079080023C02FF024C030F0000E216E000E226E2E
:10791800000E236E000E246E000E346E000E356EBF
:10792800000E366E000E376E000E396ED8EF3CF042
:107938003950D8B4A2EF3CF0A4EF3CF0BDEF3CF0D6
:10794800D8902D362E362F363036D890213622361E
:107958002336243637AEB3EF3CF0B5EF3CF0B6EF44
:107968003CF02180D8903436353636363736BDEF80
:107978003CF025502D5C26502E5827502F58285063
:107988003058D8A0CAEF3CF0CCEF3CF0D7EF3CF031
:10799800378C25502D5E26502E5A27502F5A2850A6
:1079A800305AD7EF3CF0392A190E3964DEEF3CF033
:1079B800E0EF3CF09CEF3CF0E2EF3CF02D502E1055
:1079C8002F103010D8B4EBEF3CF0EDEF3CF009EF9E
:1079D8003DF0348009EF3DF009EF3DF0D8902136B5
:1079E80022362336243637AEFCEF3CF0FEEF3CF06F
:1079F800FFEF3CF02180D8903436353636363736AE
:107A08003206D8A0330609EF3DF023AE0EEF3DF065
:107A180010EF3DF0F2EF3CF012EF3DF0000E396E42
:107A280037AE19EF3DF01BEF3DF043EF3DF0FF0E91
:107A38003414296EFF0E35142A6EFF0E36142B6E81
:107A48007F0E37142C6E29502A102B102C10D8B406
:107A580030EF3DF032EF3DF036EF3DF0010E396E7C
:107A680043EF3DF021A03BEF3DF03DEF3DF043EF0C
:107A78003DF0010E396E43EF3DF043EF3DF03950D4
:107A8800D8B449EF3DF04BEF3DF073EF3DF0010EF8
:107A98002126000E22222322242224A056EF3DF084
:107AA80058EF3DF073EF3DF021C029F022C02AF0D5
:107AB80023C02BF024C02CF02C342C322B322A3249
:107AC800293229C021F02AC022F02BC023F02CC073
:107AD80024F0324A332A73EF3DF073EF3DF033BEA2
:107AE8007EEF3DF0335008E13228D8A07EEF3DF01C
:107AF80080EF3DF08DEF3DF0000E336E3268000EE2
:107B0800216E000E226E000E236E000E246E8DEF85
:107B18003DF033BE9AEF3DF0335006E13204D8B061
:107B280098EF3DF09AEF3DF0AAEF3DF0000E336E6E
:107B3800000E326E000E216E000E226E000E236EB5
:107B4800000E246E000E316EAAEF3DF032C038F000
:107B580038A0B1EF3DF0B3EF3DF0B6EF3DF0238E26
:107B6800B9EF3DF0239EB9EF3DF0D8903830246E40
:107B78003150241221C021F022C022F023C023F06A
:107B880024C024F0C8EF3DF012003D50800B466E33
:107B98003D503D244C6E3CAED4EF3DF0D6EF3DF069
:107BA800D9EF3DF04C80D9EF3DF04C50D8B4DFEF21
:107BB8003DF0E1EF3DF0F6EF3DF04C28D8A4E7EFBB
:107BC8003DF0E9EF3DF0F3EF3DF0000E3A6E000EA8
:107BD8003B6E000E3C6E000E3D6EF3EF3DF03C8EAA
:107BE80000EF3EF0000E3A6E000E3B6E000E3C6E4B
:107BF800000E3D6E00EF3EF04150800B461A41509A
:107C080041244B6E40AE0BEF3EF00DEF3EF010EF0F
:107C18003EF04B8010EF3EF04B50D8B416EF3EF0DC
:107C280018EF3EF02DEF3EF04B28D8A41EEF3EF0A3
:107C380020EF3EF02AEF3EF0000E3E6E000E3F6E43
:107C4800000E406E000E416E2AEF3EF0408E35EF7A
:107C58003EF0000E3E6E000E3F6E000E406E000EAF
:107C6800416E4B50D8B43BEF3EF03DEF3EF047EF4E
:107C78003EF04C50D8A443EF3EF045EF3EF053EFB2
:107C88003EF047EF3EF0000E3A6E000E3B6E000EDF
:107C98003C6E000E3D6EFFEF3FF0FFEF3FF04050AF
:107CA8003A02F3CF51F0F4CF52F05150476E486A80
:107CB800496A4A6A52504D6E4E6A4F6A506A3F503E
:107CC8003B02F3CF51F0F4CF52F051504726000E4B
:107CD800482249224A2252504D26000E4E224F2257
:107CE80050223E503C02F3CF51F0F4CF52F05150A5
:107CF8004726000E482249224A2252504D26000E9D
:107D08004E224F22502249C04AF048C049F047C08D
:107D180048F0476A3E503B02F3CF51F0F4CF52F09F
:107D28005150472652504822000E4922000E4A223E
:107D38003F503A02F3CF51F0F4CF52F0515047265A
:107D480052504822000E4922000E4A2249C04AF0E9
:107D580048C049F047C048F0476A3E503A02F3CF5E
:107D680051F0F4CF52F05150472652504822000E9D
:107D78004922000E4A2240503B02F3CF51F0F4CF83
:107D880052F051504D2652504E22000E4F22000EF6
:107D980050223F503C02F3CF51F0F4CF52F05150F3
:107DA8004D2652504E22000E4F22000E50224050B7
:107DB8003C02F3CF51F0F4CF52F05150426E525082
:107DC800436E446A456A44C045F043C044F042C02B
:107DD80043F0426A42504D2643504E2244504F22AF
:107DE8004550502247C042F048C043F049C044F0D3
:107DF8004AC045F0190E06EF3FF0D890453244329C
:107E080043324232E82E01EF3FF042504D264350B4
:107E18004E2244504F224550502249C04AF048C093
:107E280049F047C048F0476A4B504CC042F0436A9B
:107E38004226000E4322820E4224516EFF0E43203A
:107E4800526E3EEF3FF0D8904D364E364F36503694
:107E58004AAE31EF3FF033EF3FF034EF3FF04D8063
:107E6800D8904736483649364A365106D8A0520681
:107E78003EEF3FF04FAE43EF3FF045EF3FF027EFC7
:107E88003FF047EF3FF0000E4B6E4AAE4EEF3FF02B
:107E980050EF3FF078EF3FF0FF0E4714426EFF0EB1
:107EA8004814436EFF0E4914446E7F0E4A14456E03
:107EB8004250431044104510D8B465EF3FF067EFC7
:107EC8003FF06BEF3FF0010E4B6E78EF3FF04DA0A7
:107ED80070EF3FF072EF3FF078EF3FF0010E4B6E1E
:107EE80078EF3FF078EF3FF04B50D8B47EEF3FF09B
:107EF80080EF3FF0A8EF3FF0010E4D26000E4E2216
:107F08004F22502250A08BEF3FF08DEF3FF0A8EFAB
:107F18003FF04DC042F04EC043F04FC044F050C057
:107F280045F04534453244324332423242C04DF086
:107F380043C04EF044C04FF045C050F0514A522A59
:107F4800A8EF3FF0A8EF3FF052BEB3EF3FF052501A
:107F580008E15128D8A0B3EF3FF0B5EF3FF0BFEFED
:107F68003FF0000E4D6E000E4E6E800E4F6E7F0E6F
:107F7800506EF3EF3FF052BECCEF3FF0525006E1A7
:107F88005104D8B0CAEF3FF0CCEF3FF0D8EF3FF044
:107F9800000E4D6E000E4E6E000E4F6E000E506EAF
:107FA800000E466EF3EF3FF051C04CF0FF0E4D1639
:107FB800FF0E4E167F0E4F16000E50164CA0E7EF20
:107FC8003FF0E9EF3FF0ECEF3FF04F8EECEF3FF082
:107FD800D8904C30506EF3EF3FF0F3EF3FF046503F
:107FE80050124DC03AF04EC03BF04FC03CF050C06C
:087FF8003DF0FFEF3FF0120025
:020000040020DA
:08000000FFFFFFFFFFFFFFFF00
:020000040030CA
:0E0000000008181EFF8181FF0FC00FE00F40A7
:00000001FF
